:100000000C9434000C9446000C9446000C94EA00C6
:100010000C9446000C94EA000C9446000C944600A4
:100020000C9446000C9446000C9446000C9464001A
:100030000C9446000C9446000C9446000C94460028
:100040000C9446000C9446000C9446000C94460018
:100050000C9446000C9446000C9446000C94460008
:100060000C9446000C94460011241FBECFEFD8E03C
:10007000DEBFCDBF21E0A0E0B1E001C01D92AA32F9
:10008000B207E1F70E94D4010C94E8020C9400003E
:10009000CF93DF9300D0CDB7DEB769837A8341E099
:1000A000BC018EE091E00E94260140E069817A81E6
:1000B00084E191E00F900F90DF91CF910C94260195
:1000C0000E944800789408950F920FB60F921F92E5
:1000D00011242F933F934F935F936F937F938F934D
:1000E0009F93AF9320910601309107014091080141
:1000F0005091090160910A0170910B0180910C01EE
:1001000090910D01A1E00E94CA0220930601309354
:100110000701409308015093090160930A0170930D
:100120000B0180930C0190930D01AF919F918F91E2
:100130007F916F915F914F913F912F911F900F9001
:100140000FBE0F90189510928000E1E8F0E08081DA
:100150008960808389EF90E0909389008093880084
:10016000EFE680818260808378940895F8946091AE
:100170000601709107018091080190910901209179
:100180000A0120910B0120910C0120910D0178941E
:10019000089561E070E08EE091E00E945F0160E010
:1001A00070E08EE091E00E945F010E94B6009B012A
:1001B000AC0160931A0130931B0180931C01509392
:1001C0001D0110921E0110921F0110922001109229
:1001D000210108951F920F920FB60F9211242F93B1
:1001E0003F934F935F936F937F938F939F93AF93BF
:1001F000BF93EF93FF930E94B6009B01AC01609305
:100200002201309323018093240150932501109201
:10021000260110922701109228011092290160E016
:1002200070E080E091E00E945F01FF91EF91BF914B
:10023000AF919F918F917F916F915F914F913F917E
:100240002F910F900FBE0F901F901895DC016E300C
:10025000710594F5862FEAE2F0E06830710524F02C
:1002600088EF860FE4E2F0E01496ED931D92169766
:100270008D934C93119721E001C0220F8A95EAF7E4
:100280008081411571F0822B80838BE290E0683091
:10029000710514F085E290E012968D931D9280E036
:1002A000089520952823208389E290E06830710525
:1002B0009CF383E290E0F0CF81E090E00895DC01D0
:1002C000892BD1F011968C9111978115A9F0129676
:1002D000ED91FD9114972C9181E001C0880F2A9532
:1002E000EAF79081672B29F0892B808380E090E0EA
:1002F000089580958923F9CF81E090E00895FC016D
:10030000892B91F0818181110FC0A281B3812C9141
:1003100030E0808102C0359527958A95E2F72095D7
:10032000822F817090E0089581E090E00895FC01B3
:10033000A481B5814C91808121E030E0B90101C0F8
:10034000660F8A95EAF7862F809584238C93A28185
:10035000B3818C91908101C0220F9A95EAF7209584
:1003600028232C93A281B3819C9185B198131AC044
:1003700091E080916800892B80936800A281B3810D
:100380009C9185B1ABE6B0E0981711F0ADE6B0E016
:100390008C91908121E001C0220F9A95EAF7822B7F
:1003A0008C93089594E0E5CF41E06AE070E080E04E
:1003B00091E00E94260161E070E080E091E00E94FF
:1003C0005F016CE070E08BE090E00E9460002FEF36
:1003D00083ED90E3215080409040E1F700C00000A1
:1003E0000E94A30084E191E00E9497010E94C9004D
:1003F0002FEF83ED90E3215080409040E1F700C063
:100400000000F894412C512C32014201E20120916C
:1004100022013091230140912401509125016091E6
:100420002601709127018091280190912901A090C7
:100430001A01B0901B01C0901C01D0901D01E090EA
:100440001E01F0901F0100912001109121010E94D6
:10045000D602EAE3AE2EB12CC12CD12C7601860156
:100460000E946D0259016A017B018C019201A30176
:10047000B4018D2F9C2F0E94DF0208F0FFCF61E0B6
:1004800070E080E091E00E945F012FEF85EA9EE03E
:10049000215080409040E1F700C0000060E070E033
:1004A00080E091E00E945F012FEF85EA9EE02150FD
:1004B00080409040E1F700C000009201A301B40128
:1004C0008D2F9C2FA1E00E94CA0229013A014B0105
:1004D000D82FC92F9CCF689401C0E8948F929F9227
:1004E000CF93DF930E947902DF91CF919F908F90FD
:1004F000089588249924F401E401B0E49F93AA2785
:100500009A158B049C04ED05FE05CF05D007A107C5
:1005100098F4AD2FDC2FCF2FFE2FE92D982C892EAC
:10052000982F872F762F652F542F432F322F222776
:10053000B85031F7BF9127C01B2EBF91BB27220FA8
:10054000331F441F551F661F771F881F991F881C64
:10055000991CEE1FFF1FCC1FDD1FAA1FBB1F8A1493
:100560009B04EC05FD05CE05DF05A007B10748F0AB
:100570008A189B08EC09FD09CE09DF09A00BB10B15
:1005800021601A94E1F62EF49401AF01BE01CD0171
:10059000000C08950024A7FD00942A0F301D401D73
:1005A000501D601D701D801D901D08952A193B0966
:1005B0004C095D096E097F09800B910B08952A157E
:1005C0003B054C055D056E057F0580079107089585
:0405D000F894FFCFCD
:00000001FF
